:020000040000FA
:10000000008F012051070000C92E00005B0700008F
:100010005D0700005F0700006107000000000000AE
:100020000000000000000000000000006307000066
:100030006507000000000000670700006907000076
:100040006B0700006B0700006B0700006B070000E8
:100050006B0700006B0700006B0700006B070000D8
:100060006B0700006B0700006B0700006B070000C8
:100070006B0700006B0700006B0700006B070000B8
:100080006B0700006B0700006B0700006B070000A8
:100090006B0700006B0700000B2600006B070000D9
:1000A0006B0700006B0700006B0700006B07000088
:1000B0006B0700006B0700006B070000772400004F
:1000C0006B070000812400006B0700008B240000F8
:1000D0006B070000952400006B0700000F2C000048
:1000E0006B0700006B0700006B0700006B07000048
:1000F0006B0700006B0700006B0700006B07000038
:100100003B320000453200004F32000059320000FF
:100110006B0700006B0700006B0700006B07000017
:100120006B0700006B0700006B070000171B000047
:10013000211B00002B1B0000351B00003F1B000093
:100140006B0700006B0700009F2400006B07000096
:10015000A92400006B0700006B0700006B0700007C
:100160006B0700001F2C00006B0700006B070000EE
:100170006B0700006B0700006B0700006B070000B7
:100180006B0700006B0700006B0700006B070000A7
:100190006B0700006B0700006B0700006B07000097
:1001A0006B0700006B0700006B0700006B07000087
:10040000FFFFFFFFFFFFFFFFFFFFFFFFFEFFFFFFFD
:1004100000F002F800F095F80AA090E8000C824481
:100420008344AAF10107DA4501D100F08AF8AFF25E
:10043000090EBAE80F0013F0010F18BFFB1A43F0C2
:1004400001031847B48A0100D48A010010F8013B67
:100450000A4413F0030408BF10F8014B1D1108BF34
:1004600010F8015B641E05D010F8016B641E01F8E2
:10047000016BF9D1002D15D010F8014B03F00C03DE
:100480000C2BA1EB04040ABF10F8013BA4EB83146E
:10049000A4EB032405F1010314F8016B5B1E01F8C2
:1004A000016BF9D5914238BF10F8013BD1D37047A9
:1004B0000023002400250026103A28BF78C1FBD86D
:1004C000520728BF30C148BF0B6070474B1C012B3F
:1004D00098BF70472DE9F003911C9B08B1F8048088
:1004E000B1F802900A8831F802CC80448144024479
:1004F0008444D9F80070D8F800601568DCF8004032
:10050000C9F80060C8F80070CCF800501460D9F841
:100510000470D8F804605568DCF80440C9F8046039
:10052000C8F80470CCF80450546008315B1ED5D173
:10053000BDE8F00370471FB505F0F0F81FBD10B51A
:1005400010BD04F079F81146FFF7F5FF00F02CF923
:1005500004F097F803B4FFF7F2FF03BC04F0FEF8D1
:100560007248006840F47000704908604CF22050F6
:100570006F49C8814DF62810C8814FF4E970088092
:100580004FF08A706B4948640846406820F4403058
:1005900048606948006840F44020674908600620C8
:1005A00066490870002048700846C07840F0E000B6
:1005B000C8708020624908706048007B00F0FC0031
:1005C0005E49087300200871487100BF5B4880795C
:1005D00000F010000028F9D000BF5848807900F0E2
:1005E0000C000028F9D17047544A127802F0C0027A
:1005F000002A67D1514A527902F04002002A51D1B3
:100600004E4A127802F00402C2B94C4A127B02F040
:1006100003020AB94B4801E04FF40040474A127800
:10062000C2F3C20301229A40D1B2B0FBF1F0434AB7
:10063000527802F030021AB1400901E04FF4004054
:100640003E4AD27802F0E00202F01F0343BB52118F
:10065000082A25D2DFE802F004080C1014181C2028
:1006600000EB8002D0011CE000EB8002100218E0D9
:10067000C0EB0012D00114E000EB8002500210E049
:100680004FF4377250430CE04FF4B762504308E028
:1006900040F69502504304E040F67132504300E0CA
:1006A00000BF38E0254A127902F01F02511C254A8A
:1006B000B2FBF1F0214A527902F01F0202F1180157
:1006C000484328E01D4A127802F0C002402A11D1A6
:1006D0001A4A527802F0010212B94FF400401AE0AF
:1006E000164A127AC2F3420301229A40164BB3FB18
:1006F000F2F010E0114A127802F0C002802A09D10B
:100700000E4A127B02F003020AB90E4803E04FF4CE
:10071000004000E07047074A526C012303EB12725D
:10072000B0FBF2F2094B1A6000BFF3E788ED00E07E
:100730000020054000800440007004400040064056
:100740000050064080F0FA0200093D000000002041
:100750000948804709480047FEE7FEE7FEE7FEE755
:10076000FEE7FEE7FEE7FEE7FEE7FEE70448054991
:10077000054A064B704700006105000011040000A7
:1007800000830120008F01200087012000870120C5
:100790004E480068401C4D49086070474C4800684E
:1007A000401C4B49086070472DED068B82B000F06D
:1007B00064FA4849086000204749086448648DF895
:1007C00000000A200190684602F08AFCAFF23F0167
:1007D000002002F012FD9FED410A414880ED000A21
:1007E00000BF05203F490860002565E0002037492B
:1007F000086001220021084602F0ABFC002405E05D
:1008000021464FF4805000F083F8641CB4F5805FFB
:10081000F6D300221146104602F09BFC00F0ECF8E3
:10082000314890ED000A3148D0ED000A30EE600A00
:100830002F48D0ED000A20EE200A2E48D0ED000A05
:1008400080EE201AB1EE000A21EE000A10EE104AE6
:10085000204604F0ADFE41EC1A0B9FED270B53EC44
:10086000102B04F005F941EC190B03F09FFF24490C
:100870000860084690ED000AF3EE090A80EE201A9F
:1008800080ED001A0A2002F013FB9FED140AB0EE6F
:10089000408A1C4890ED000ADFED1B0A80EE801AAA
:1008A000B0EE418A0E4880ED008A0E48006819308B
:1008B0000C490860681CC5B214480078854295DB75
:1008C00000F0D1FC01F091FE8BE7000004810020D4
:1008D000480000203C18FE430000FE4300000000DA
:1008E000EC80002010810020F08000201400002007
:1008F000100000200C0000208716D9CEF7530D40C1
:10090000E8800020E080002000007A4318000020EA
:100910002DE9F04180460E4600240025012085493E
:1009200048670020C8640120C8660020C866824865
:10093000006802F0C3FA01207E49C86600BF7F4804
:1009400000680028FBD17B4948677C48083800686C
:10095000012801D144F001047848001F00680128F3
:1009600001D145F00105002718E001207149086711
:10097000600004B2680005B270480838006820437F
:1009800004B20846D0F86402284305B2022002F0FF
:1009900095FA002067490867781CC7B20C2FE4DB82
:1009A0000120644908674867B4F5006F02DDC4F3AD
:1009B0000A0401E044F40064B5F5006F02DDC5F3FC
:1009C0000A0501E045F40065C4F30B0000EE100ACF
:1009D000B8EEC00A5A4800EB860080ED000AC5F365
:1009E0000B0000EE100AB8EEC00A564800EB860075
:1009F00080ED000ABDE8F08100B587B04FF480516A
:100A000001A802F02DFE9FED500A8DED000A4F4A1D
:100A10004FF480514A4802F079FF4D4B6A464FF43B
:100A20008051474802F0B0FE9DED000ADFED490A13
:100A300030EE600A8DED000A9DED000AB5EEC00AA9
:100A4000F1EE10FA05D29DED000AB1EE400A8DEDEF
:100A5000000A0023404A3A4901A802F0DFFD0023C2
:100A60003E4A384901A802F0D9FD4FF400623449EA
:100A70003A4802F005FC4FF40063324A30493648E8
:100A800002F070FC01232E4A2E4901A802F0C6FD97
:100A90002F4B334A4FF40061294802F075FE314A6A
:100AA0004FF48051264802F0D9FE2E4890ED000AFE
:100AB000B5EEC00AF1EE10FA05D290ED000AB1EEE3
:100AC000400A80ED000A274890ED000AF7EE000A80
:100AD00030EE200A2248D0ED000A80EE801A22482B
:100AE00080ED001A1A4890ED000AB8EE400A1F483F
:100AF00080ED000AD0ED000A1D4890ED000AB8EE26
:100B0000400A20EE800A194880ED000A90ED000AA4
:100B1000DFED180A80EE201A80ED001A90ED000A31
:100B2000DFED150A80EE201A80ED001A9DED000A17
:100B300007B000BD0000FE43108100206802FE43A4
:100B4000B4000020B440002000000000F08000202D
:100B5000FC800020000000453002012030420120CE
:100B6000B8800020BC800020C4800020E0800020ED
:100B7000048100200000C84200F07F45704710B596
:100B80000120FFF7FBFF022020B1012821D002281D
:100B90005DD13DE004220021032000F060FE002230
:100BA0000421032000F05BFE00220521032000F059
:100BB00056FE00221146022000F051FE00220121C3
:100BC000022000F04CFE04220221084600F047FEFD
:100BD0003DE004221146032000F041FE00221146B0
:100BE000032000F03CFE00220521032000F037FE28
:100BF00000220321022000F032FE00220421022004
:100C000000F02DFE04220521022000F028FE1EE047
:100C100004220521032000F022FE002211460320B9
:100C200000F01DFE00220421032000F018FE002227
:100C30000621022000F013FE00220721022000F00E
:100C40000EFE04220821022000F009FE00BF00BFB2
:100C500000221321022000F002FE002201210320C5
:100C600000F0FDFD00220221032000F0F8FD00222B
:100C70000321084600F0F3FD10BD10B502F014F991
:100C800002F02AF84FF4FA6001F066FC0422132106
:100C9000002000F0E4FD00221821104600F0DFFDE6
:100CA00000221921104600F0DAFD00221A21104618
:100CB00000F0D5FD04221B21002000F0D0FD04220D
:100CC0001C21002000F0CBFD04221D21002000F09B
:100CD000C6FD04221021002000F0C1FD04221121D4
:100CE000002000F0BCFD0120044908644864C86489
:100CF00002F0DEF8FFF743FF002010BD0000FE43C6
:100D000070B52DED048B0024FE4890ED000ADFED58
:100D1000FE0A20EE200ABCEEC00A10EE100A84B2D1
:100D2000200AFA4908704C70F94890ED000AF94819
:100D3000D0ED000A30EE600AF748D0ED000A20EE50
:100D4000200AF648D0ED000A80EE201ABCEEC10A57
:100D500010EE100A0004850B284604F0B3F841ECAD
:100D6000190B9FEDEF0B53EC102B04F0CFF841EC77
:100D7000180B04F039F884B2002C03DD42F2107035
:100D8000844201DD40F6F614200AE0498870CC70F8
:100D9000BDEC048B70BD70B5E3480078E349087082
:100DA0000320487004208870002006E0D7490A5CC0
:100DB000DE4BC11C5A54411CC8B20428F6DB072183
:100DC000DA4802F08FF80446D849CC71200A08723C
:100DD0000120D749C86102F06BF8002506E0D3482E
:100DE000415D052000F0D1FE681CC5B2092DF6DB7F
:100DF000022002F05DF80020CD49C86170BD30B519
:100E0000002200EE900AF8EE600A60EE200AFCEE86
:100E1000E00A10EE901A8AB2002107E002F0010306
:100E2000C44D45F8213052104B1CD9B21029F5DBC6
:100E300030BD10B5022020B101287CD002287BD122
:100E40004FE10120BC4908604FF4FA7002F036F817
:100E500000BFBA4800680028FBD1B94800680028E4
:100E6000F7D14FF4FA7002F029F800BFB3480068D8
:100E70000028FBD1B24800680028F7D10120FFF715
:100E80007DFE4FF4FA7002F019F800BFAC48001D67
:100E900000680028FAD1AA48083000680028F5D177
:100EA0004FF4FA7002F00AF800BFA548001D006870
:100EB0000028FAD1A248083000680028F5D19E49E0
:100EC000086064209F4991ED000AFFF798FF012018
:100ED0009949086000BF9A48001D00680128FAD1AE
:100EE0009748083000680028F5D14FF4FA7001F0F7
:100EF000E5FF00BF9248001D00680128FAD1904824
:100F0000083000680028F5D18B49086001208E491F
:100F100091ED000AFFF773FF01208749086000BFC9
:100F20008748001D00680028FAD18548083000680D
:100F30000128F5D101E037E093E14FF4FA7001F0B8
:100F4000BDFF00BF7E48001D00680028FAD17C4824
:100F5000083000680128F5D100207749086042F286
:100F600010707A4991ED000AFFF749FF012072499C
:100F7000086000BF7148006818B97148006800280F
:100F8000F8D04FF4FA7001F099FF00BF6B48006889
:100F900018B96B4800680028F8D00020FFF7EEFD74
:100FA0000020654908605CE1012063491031086058
:100FB000642001F083FF00BF604800680128FBD176
:100FC0005F4800680028F7D1642001F077FF00BF78
:100FD0005A4800680128FBD1594800680028F7D119
:100FE0000120FFF7CBFD642001F068FF00BF5448EB
:100FF000001D00680028FAD1514808300068002818
:10100000F5D1642001F05AFF00BF4D48001D006873
:101010000028FAD14A48083000680028F5D1642039
:10102000484991ED000AFFF7EAFE00BF4448001D61
:1010300000680128FAD14248083000680028F5D13C
:10104000642001F03BFF00BF3D48001D00680128FF
:10105000FAD13B48083000680028F5D101203A4910
:1010600091ED000AFFF7CBFE00BF3548001D006878
:101070000028FAD13248083000680128F5D16420F0
:1010800001F01CFF00BF2E48001D00680028FAD1A7
:101090002B48083000680128F5D142F210702B4926
:1010A00091ED000AFFF7ABFE00BF2448006801285D
:1010B00003D1234800680028F7D0642001F0FEFE29
:1010C00000BF1E480068012803D11D4800680028A1
:1010D000F7D00020FFF752FD0020174910310860BB
:1010E000BFE00120144914310860642001F0E6FEDD
:1010F00000BF124800680028FBD111480068012891
:10110000F7D125E04C8100200000C842AC0000204F
:101110005081002014000020100000200C0000204E
:10112000000000000000E03F2C81002041820120EF
:101130000020FE430010FE430018FE434C12FE4305
:10114000041AFE43EC800020E8800020C4800020C8
:10115000642001F0B3FE00BFFE4800680028FBD108
:10116000FD4800680128F7D1FFF708FD642001F071
:10117000A5FE00BFF848001D00680028FAD1F64817
:10118000083000680028F5D1642001F097FE00BF08
:10119000F148001D00680028FAD1EF4808300068C7
:1011A0000028F5D16420ED4991ED000AFFF727FEF4
:1011B00000BFE948001D00680128FAD1E648083060
:1011C00000680028F5D1642001F078FE00BFE248F5
:1011D000001D00680128FAD1DF48083000680028A7
:1011E000F5D10120DE4991ED000AFFF708FE00BFAE
:1011F000D948001D00680028FAD1D7480830006897
:101200000128F5D1642001F059FE00BFD248001D2D
:1012100000680028FAD1D048083000680128F5D1CC
:1012200042F21070CF4991ED000AFFF7E8FD00BFD0
:10123000C848006818B9C84800680128F8D0642078
:1012400001F03CFE00BFC348006818B9C2480068FE
:101250000128F8D00020FFF791FC0020C249086067
:1012600000BF00BF10BD10B5022020B101287DD005
:1012700002287CD112E10120BB49143908604FF4E7
:10128000FA7001F01BFE00BFB2484C38006800281D
:10129000FAD10024B14890ED000A5FED650A20EE16
:1012A000200ABCEEC00A10EE100A84B2002015E03D
:1012B00000BFA849483909680029FAD1C0F10F01D7
:1012C00044FA01F101F00101A84A916000BFA1496F
:1012D000483909680029FAD0411CC8B21028E7DB58
:1012E0009F4890ED000AF7EE000A20EE200ABCEEBF
:1012F000C00A10EE100A84B2002015E000BF954924
:10130000483909680029FAD1C0F10F0144FA01F106
:1013100001F00101954A916000BF8E494839096882
:101320000029FAD0411CC8B21028E7DB8D4890EDA7
:10133000000ADFED8F0A20EE200ABCEEC00A10EE94
:10134000100A84B2002018E000BF824948390968B9
:101350000029FAD1C0F10F0144FA01F101F00101B5
:10136000824A916000BF7B49483901E00EE02AE1E2
:1013700009680029F7D0411CC8B21028E4DB00201E
:101380007A4988607849143908601CE1012076495F
:10139000091F08604FF4FA7001F090FD00BF6D481E
:1013A000403800680028FAD100246C4890ED000A0B
:1013B0005FEDAB0A20EE200ABCEEC00A10EE100A68
:1013C00084B2002015E000BF62493C390968002959
:1013D000FAD1C0F10F0144FA01F101F00101634AB1
:1013E000516100BF5B493C3909680029FAD0411CB2
:1013F000C8B21028E7DB5A4890ED000AF7EE000A61
:1014000020EE200ABCEEC00A10EE100A84B20020C2
:1014100015E000BF4F493C3909680029FAD1C0F1F5
:101420000F0144FA01F101F00101504A516100BF7E
:1014300048493C3909680029FAD0411CC8B2102833
:10144000E7DB484890ED000ADFED490A20EE200A6C
:10145000BCEEC00A10EE100A84B2002015E000BFF6
:101460003C493C3909680029FAD1C0F10F0144FA1E
:1014700001F101F001013D4A516100BF35493C399C
:1014800009680029FAD0411CC8B21028E7DB002007
:10149000364948613449091F086094E00120324907
:1014A00008604FF4FA7001F009FD00BF2948343894
:1014B00000680028FAD10024284890ED000A5FED6A
:1014C000EE0A20EE200ABCEEC00A10EE100A84B22A
:1014D000002015E000BF1F49303909680029FAD102
:1014E000C0F10F0144FA01F101F001011F4A11623C
:1014F00000BF1849303909680029FAD0411CC8B228
:101500001028E7DB164890ED000AF7EE000A20EEFF
:10151000200ABCEEC00A10EE100A84B2002015E0CA
:1015200000BF0C49303909680029FAD1C0F10F0118
:1015300044FA01F101F001010C4A116200BF0549B2
:10154000303909680029FAD0411CC8B21028E7DBFD
:1015500004480FE04C12FE43041AFE43EC800020C6
:10156000E8800020C48000201418FE430010FE43D1
:1015700000401C4690ED000A5FED030A20EE200AB1
:10158000BCEEC00A10EE100A84B2002013E000BFC7
:101590000E4909680029FBD1C0F10F0144FA01F19D
:1015A00001F001010A4A116200BF084909680029D7
:1015B000FBD0411CC8B21028E9DB002004490862B6
:1015C0000449086000BF00BF10BD00001C12FE43AC
:1015D0000010FE431418FE4310B5FC4B9B6BFC4CF3
:1015E00054F820402343F94CA363FA4B53F82030BE
:1015F00053F8213023F4E063F64C54F8204044F8CB
:101600002130F44B53F8203053F821304FF4E0648C
:1016100004EA02242343EF4C54F8204044F82130DC
:1016200010BD10B5E94B9B6BE94C54F820402343A7
:10163000E64CA36322B1012A0FD0022A3FD125E054
:10164000E44B53F8203053F8213023F00203E14CEF
:1016500054F8204044F8213032E0DE4B53F820307B
:1016600053F8213043F00203DA4C54F8204044F898
:101670002130D84B53F8203053F8213043F0010388
:10168000D44C54F8204044F8213019E0D14B53F8A1
:10169000203053F8213043F00203CE4C54F8204060
:1016A00044F82130CB4B53F8203053F8213023F04D
:1016B0000103C84C54F8204044F8213000E000BF3A
:1016C00000BF10BD10B5C14B9B6BC14C54F82040FE
:1016D0002343BE4CA36362B1BE4B53F8203053F892
:1016E000213043F02003BB4C54F8204044F8213013
:1016F0000BE0B84B53F8203053F8213023F020038F
:10170000B44C54F8204044F8213010BD10B5AF4B14
:101710009B6BAF4C54F820402343AC4CA36362B1A5
:10172000AC4B53F8203053F8213043F01003A94C50
:1017300054F8204044F821300BE0A64B53F82030F9
:1017400053F8213023F01003A24C54F8204044F801
:10175000213010BD10B59D4B9B6B9D4C54F8204023
:1017600023439A4CA363012A0BD19B4B53F820309F
:101770005B6901248C402343974C54F820406361FB
:101780000AE0954B53F820305B6901248C40A34359
:10179000914C54F82040636110BD10B50446607848
:1017A000052854D2DFE800F00313233343002179E6
:1017B00020780022FFF735FF217920780022FFF7FB
:1017C00081FF217920780022FFF7C4FF40E02179D2
:1017D00020780222FFF725FF217920780022FFF7E9
:1017E00071FF217920780022FFF7B4FF30E02179E2
:1017F00020780122FFF715FF217920780022FFF7DA
:1018000061FF217920780022FFF7A4FF20E02179F1
:1018100020780122FFF705FF217920780122FFF7C8
:1018200051FF217920780122FFF794FF10E0217900
:1018300020780022FFF7F5FE217920780022FFF7BB
:1018400041FF217920780122FFF784FF00E000BFEB
:1018500000BF217920780122FFF7BEFE10BD7CB5C4
:1018600004460D461646E0B28DF800008DF8016082
:1018700001956846FFF791FFE0B27CBD10B5534B70
:101880009B6B534C54F820402343504CA3635AB1F4
:10189000514B53F820305B6801248C4023434E4C5D
:1018A00054F8204063600AE04B4B53F820309B68AB
:1018B00001248C402343484C54F82040A36010BDC1
:1018C000454A52F82020526801238B401A43424B6C
:1018D00053F820305A6070473F4A52F820209268EF
:1018E00001238B401A433C4B53F820309A607047D9
:1018F0000246394850F822004069C84000F0010013
:1019000038B1354850F822000068C84000F00100A6
:101910007047314850F822000069C84000F00100CB
:10192000F6E72D4A52F82020D26801238B401A4353
:10193000294B53F82030DA6070470146264850F8AA
:10194000210000697047244A52F820201160704736
:101950002DE9F04104460D4616461F461B48806B94
:101960001B4951F82410084318498863194850F856
:10197000240050F8250020F47020164951F8241056
:1019800041F8250067B91549085700F01F020121E9
:101990009140134A430942F8231000BFBDE8F0818B
:1019A000082E7DD2DFE806F0041E2B38495A6B7DE5
:1019B000084850F8240050F8250040F480300549CC
:1019C00051F8241041F825007DE00000008004401B
:1019D000C4590000B05900009C590000D8590000BB
:1019E00080E100E05E4850F8240050F8250040F403
:1019F00000305B4951F8241041F8250063E0584855
:101A000050F8240050F8250040F44030544951F873
:101A1000241041F8250056E0514850F8240050F8B1
:101A2000250040F400204E4951F8241041F82500CB
:101A30004C49085700F088F845E0494850F8240020
:101A400050F8250040F41020454951F8241041F881
:101A500025004449085700F077F834E0404850F832
:101A6000240050F8250040F420203D4951F824106E
:101A700041F825003B49085700F066F823E0384854
:101A800050F8240050F8250040F43020344951F833
:101A9000241041F825003349085700F055F812E0AA
:101AA00010E02F4850F8240050F8250040F4402062
:101AB0002B4951F8241041F825002A49085700F015
:101AC00043F800E000BF00BF00BF67E7264A926B03
:101AD000264B53F820301A43234B9A6311B1244A02
:101AE00042F82010704770B504461D4850F8240095
:101AF000D0F8A0504FF0FF30194951F82410C1F828
:101B0000A0001B4850F8240020B1194850F82410B8
:101B10002846884770BD10B50020FFF7E4FF10BDD0
:101B200010B50120FFF7DFFF10BD10B50220FFF751
:101B3000DAFF10BD10B50320FFF7D5FF10BD10B5BB
:101B40000420FFF7D0FF10BD00F01F0201219140DB
:101B50004209920002F1E022C2F800117047000031
:101B6000B0590000D859000000800440C45900005A
:101B70004C8201200146FE4850F82100007CC0F351
:101B80000210FC4A52F82000704730B503460C465C
:101B9000F74850F82300007C00F0800050B100BFEF
:101BA0001846FFF7E7FFF24951F82310097D8842F4
:101BB000F6D908E000BFEE4850F82300007900F0A5
:101BC00080000028F7D0EA4951F82310CC71C4F303
:101BD000002555B1E64850F82300807940F04000D8
:101BE000E34951F82310887109E0E14850F82300D7
:101BF000807920F04000DE4951F82310887130BD13
:101C000030B504460D46A1B2DB480078FFF7BDFFB2
:101C1000204630BD10B502460023D54850F82200BA
:101C2000007900F0200078B1D14850F82200807986
:101C3000C309180208800888CD4C54F82240E47982
:101C400020430880002010BD0120FCE718B50446A1
:101C500000BF6946C8480078FFF7DCFF0028F8D1CC
:101C6000BDF80000C0B218BD30B505460C4604E012
:101C700014F8011B2846FFF788FF20780028F7D1C9
:101C800030BDF0B504460D46B4FBF5F028B1B4FB09
:101C9000F5F629463046FFF7F4FFB4FBF5F005FBF7
:101CA0001047B6480068C15DB3480078FFF76DFF84
:101CB000F0BD0FB470B5064606AD00BF08E01CB914
:101CC000002070BC5DF814FB21463046FFF75DFF35
:101CD000059810F8011B0C4605902529EFD10598B1
:101CE00010F8014B0590642C01D06C2C03D10A2113
:101CF0002868FFF7C6FF6F2C01D0782C08D16F2C15
:101D000001D1082200E0102211462868FFF7B9FF30
:101D1000732C03D130462968FFF7A6FF2D1DCDE7B0
:101D20002DE9F0410446012001F028F8074620790A
:101D300010B12079012803D1002001F01FF80746D7
:101D40002760207900EB40008D4951F820000068A1
:101D5000217901EB41018A4A02EB8101496808437C
:101D6000217901EB410152F8211008602079804966
:101D700051F82000C07820F00C0021797C4A52F8FC
:101D80002110C870A16809012068B0FBF1F085B28C
:101D900020684001A1680901B0FBF1F0202101FB9E
:101DA0001500C6B22079114651F82000007820F0C5
:101DB0001F00217952F8211008702079114651F83E
:101DC000200040780020217952F8211048702079B5
:101DD000114651F82000807A20F01F00217952F836
:101DE000211088722079114651F820000078C5F33F
:101DF00004210843217952F821100870217952F802
:101E000021104D702079114651F82000807A06F09B
:101E10001F010843217952F821108872207B20B1DC
:101E200002281AD0032848D12FE02079504951F8D0
:101E30002000807820F0020021794D4A52F82110CC
:101E400088702079114651F82000807820F0100029
:101E5000217952F82110887030E02079444951F8F6
:101E60002000807840F002002179414A52F8211088
:101E700088702079114651F82000807820F0010008
:101E8000217952F82110887018E02079384951F8EA
:101E90002000807840F002002179354A52F8211064
:101EA00088702079114651F82000807840F00100B8
:101EB000217952F82110887000E000BF00BF607BDC
:101EC00010B101287BD136E02079294951F8200052
:101ED000807800F00200B0B1207951F820008078BD
:101EE00040F010002179224A52F8211088702079A0
:101EF000114651F82000807A20F02000217952F814
:101F00002110887216E02079194951F82000807854
:101F100020F010002179164A52F82110887020799B
:101F2000114651F82000807A20F02000217952F8E3
:101F30002110887244E020790D4951F82000807802
:101F400000F0020098B1207951F82000807840F02C
:101F500010002179064A52F8211088702079114624
:101F600051F82000807A40F0200021790AE00DE04D
:101F7000E0590000485A0000548100206081002090
:101F8000F859000052F82110887216E02079FE49B5
:101F900051F82000807840F010002179FA4A52F878
:101FA000211088702079114651F82000807A20F0A5
:101FB0002000217952F82110887201E0FFE700BF6C
:101FC00000BF2079F04951F82000407920F020002E
:101FD0002179ED4A52F8211048712079114651F8C3
:101FE0002000C07840F00C00217952F82110C87010
:101FF000E648007810B12079E54908700020E349EF
:102000000870BDE8F08100BFDF4951F82010097960
:1020100001F080010029F7D0DB4951F82010C97880
:1020200021F00C01D84A52F82020D17000EB400179
:10203000D84A52F82110096800EB4002D54B03EB57
:1020400082025268914300EB400253F82220116053
:102050007047CF4A1070704751B1CB4A52F82020D8
:10206000127C42F08002C84B53F820301A7409E009
:10207000C54A52F82020127C22F08002C24B53F84D
:1020800020301A74704751B1BF4A52F82020127C98
:1020900042F00802BC4B53F820301A7409E0BA4AE7
:1020A00052F82020127C22F00802B74B53F820305F
:1020B0001A7470470146B44850F82100007C00F0C3
:1020C0000700B54A52F820007047AF4A52F8202066
:1020D000D27822F00802AC4B53F82030DA70AA4BC9
:1020E00053F82030D974A84A52F82020D27842F010
:1020F0000802A54B53F82030DA707047A24A52F814
:102100002020D27822F004029F4B53F82030DA705E
:102110009D4B53F8203059759B4A52F82020D278B5
:1021200042F00402984B53F82030DA70704770B5D3
:1021300004460E46154604EB4400964951F820002B
:10214000006804EB4401934A02EB810149680843AB
:1021500004EB440152F821100860052E73D2DFE829
:1021600006F003391E66940055B1874850F82400E4
:10217000C07840F08000844951F82410C87009E00C
:10218000814850F82400C07820F080007E4951F842
:102190002410C8708149085700F08BF991E055B1BF
:1021A000794850F82400C07840F02000764951F872
:1021B0002410C87009E0744850F82400C07820F05A
:1021C0002000714951F82410C8707449085700F074
:1021D00070F976E055B16C4850F82400C07840F0B2
:1021E0008000694951F82410C87009E0664850F829
:1021F0002400C07820F08000634951F82410C87092
:1022000055B1614850F82400C07A40F080005E4922
:1022100051F82410C87209E05B4850F82400C07AD5
:1022200020F08000584951F82410C87249E05DB18F
:10223000554850F82400C07840F02000524951F829
:102240002410C8700AE03BE04F4850F82400C078E2
:1022500020F020004C4951F82410C87055B14A486C
:1022600050F82400C07A40F02000474951F824106B
:10227000C87209E0444850F82400C07A20F02000D9
:10228000414951F82410C8721BE055B13E4850F83E
:102290002400C07840F010003B4951F82410C87069
:1022A00009E0394850F82400C07820F01000364981
:1022B00051F82410C8703949085700F0FAF800E0C6
:1022C00000BF00BF70BD10B500EB4002314B53F8AA
:1022D0002220126800EB40032E4C04EB83035B6862
:1022E0001A4300EB400354F823301A6011B12C4A12
:1022F00042F8201010BD10B500EB4002254B53F8FA
:102300002220126800EB4003224C04EB83035B683D
:102310001A4300EB400354F823301A6011B1214AEC
:1023200042F8201010BD73B584B00E4604AC02967E
:10233000207800F007008DF8040000208DF80C00D4
:102340008DF80D0000250DE02388C3F38212C3F33E
:1023500044232B44D9B22378C3F3C200FFF73CF9DE
:10236000681CC5B22068C0F38430A842ECDC684623
:10237000FFF7D6FC217801F007000021FFF76CFE83
:10238000217801F007000FE0E0590000648100208F
:1023900054810020F8590000485A0000405A0000BB
:1023A00060820120788201200021FFF76CFE2078F6
:1023B00000F0070006B070BD1CB50446424850F856
:1023C0002400007900F08000A8B13F4850F82400B4
:1023D000C07800F0800070B13C4850F8240020B173
:1023E0003A4850F8241001A88847BDF8040036493F
:1023F00051F82410C871344850F82400007900F0D6
:102400002000A8B1304850F82400C07800F0200027
:1024100070B12D4850F82400C07901902C4850F834
:10242000240028B12A4850F82410BDF80400884739
:10243000254850F82400007900F0080020B1224817
:1024400050F82400C07900901F4850F8240000790B
:1024500000F0100070B11C4850F82400C0790090C2
:102460001B4850F8240028B1194850F824104FF6A2
:10247000FF7088471CBD10B50020FFF79DFF10BD01
:1024800010B50120FFF798FF10BD10B50220FFF72F
:1024900093FF10BD10B50320FFF78EFF10BD10B5E0
:1024A0000420FFF789FF10BD10B50520FFF784FF5A
:1024B00010BD00F01F02012191404209920002F17B
:1024C000E022C2F800117047E0590000608201204C
:1024D0007882012072B64CF220505349C8814DF6E3
:1024E0002810C88162B670472DE9F04104460120EA
:1024F00000F044FC074640F2D316207810B10128C2
:1025000006D102E026F0080603E046F0080600E0E7
:1025100000BF00BFFFF7DEFFF8084FF47A71B0FB91
:10252000F1F0616800FB01F5280C3F498880CD80FF
:10253000F8084FF47A71B0FBF1F0A16800FB01F5E7
:10254000280C394908814D814FF4E060C88246F07B
:1025500001060E80BDE8F0813EB5044600208DF8EE
:1025600000000194600802906846FFF7BDFF3EBD81
:1025700010B50446FFF7AEFF012C06D12A480088AB
:1025800040F004002849088005E02748008820F032
:10259000040025490880012C0AD116200121814020
:1025A0004209920002F1E022C2F8001100BF08E0E7
:1025B0001620012181401D4A430942F8231000BF23
:1025C00000BF10BD08B11A49086070471648808ADC
:1025D00070474FF6FF701449888270471249098A84
:1025E00008041149498A0843704772B64AF20261E9
:1025F0000D4A91814BF28041918162B6002001E049
:1026000000BF401C1428FBD3704710B50648408813
:1026100040F40040044948800548006810B104496E
:102620000868804710BD00000020054080E100E000
:10263000688100200246F64850F8220050F8210038
:1026400000F0800008B1002070470120FCE730B5A1
:102650000146EF4850F82100406A40F04000EC4D40
:1026600055F821506862EA4850F82100406A40F06D
:102670008000E74D55F821506862002400E0641C9A
:10268000E4488442FBD3E24850F82100406A00F05D
:10269000400008B1012030BD0022DD4850F8210083
:1026A000C06C0244DA4850F82100806C0244D848DB
:1026B00050F82100406C0244D54850F82100006CCD
:1026C0000244D34850F82100C06B0244D04850F86F
:1026D0002100806B02444FF4004040EA5202002384
:1026E000CB4850F82100C06E0344C94850F821007F
:1026F000806E0344C64850F82100406E0344C4482D
:1027000050F82100006E0344C14850F82100C06D0C
:102710000344BF4850F82100806D03444FF400404B
:1027200040EA5303BA4850F82100406A20F0800084
:10273000B74D55F821506862B54850F82100C26283
:10274000B34850F8210003630020A4E710B5044605
:10275000206800EB4000B04951F820000068216873
:1027600001EB4101AC4A02EB810149680843216851
:1027700001EB410152F821100860A549206851F889
:102780002000806820F06000A14A216852F82110E2
:1027900088601146206851F82000806861796022C5
:1027A00002EA411108439A4A216852F821108860D0
:1027B0001146206851F82000806840F080002168B0
:1027C00052F8211088601146206851F82000006AF4
:1027D00020F00300216852F8211008621146206899
:1027E00051F82000006AA17A01F003010843216832
:1027F00052F8211008621146206851F820008068C4
:1028000020F00C00216852F82110886011462068E1
:1028100051F820008068A1790C2202EA8101084366
:102820007B4A216852F821108860207901280BD159
:102830001146206851F82000006A40F040002168ED
:1028400052F8211008620BE07149206851F820000D
:10285000006A00F040006E4A216852F821100862B8
:10286000207A60B96A49206851F82000406A40F037
:102870000800674A216852F8211048620BE0644959
:10288000206851F82000406A20F00800604A216862
:1028900052F821104862607A052878D2DFE800F00B
:1028A0000310315478005A49206851F82000406ADA
:1028B00020F00400564A216852F8211048628BE04B
:1028C0005349206851F82000406A40F00400504A03
:1028D000216852F8211048621146206851F8200002
:1028E000406A20F00300216852F821104862114626
:1028F000206851F82000406A216852F8211048628F
:102900006AE04349206851F82000406A40F0040022
:102910003F4A216852F8211048621146206851F858
:102920002000406A20F00300216852F8211048621C
:102930001146206851F82000406A40F001002168EB
:1029400052F82110486247E03149206851F82000D0
:10295000406A40F004002E4A216852F82110486273
:102960001146206851F82000406A20F003002168D9
:1029700052F8211048621146206851F82000406A40
:1029800040F00200216852F82110486224E022E061
:102990001F49206851F82000406A40F004001C4A9A
:1029A000216852F8211048621146206851F8200031
:1029B000406A20F00300216852F821104862114655
:1029C000206851F82000406A40F00300216852F866
:1029D0002110486200E000BF00BF2068FFF737FE0B
:1029E00010BD51B10A4A52F82020126A42F040024A
:1029F000074B53F820301A6209E0054A52F82020AC
:102A0000126A02F04002024B53F820301A627047FB
:102A1000645A0000A08601006C5A000049B9844A3B
:102A200052F82020D26822F01002814B53F8203057
:102A3000DA60012909D17E4A52F82020D26842F09A
:102A400010027B4B53F82030DA60704773B584B0C6
:102A50000E4604AC207800F00700019003208DF8AA
:102A600009008DF80A6000208DF808008DF80B0031
:102A700001208DF80C0000208DF80D008DF80E005F
:102A8000002518E02388C3F38212C3F344232B44A8
:102A9000D9B22378C3F3C200FEF79EFD2288C2F3A9
:102AA00044222A44D1B22278C2F3C2000022FEF7A7
:102AB000B8FD681CC5B22068C0F38430A842E1DCD0
:102AC00001A8FFF743FE2268110E227802F00700EA
:102AD000FFF7A4FF207800F0070006B070BD10B526
:102AE000534B53F8203053F8223023F01F03504C3F
:102AF00054F8204044F822304D4B53F8203053F81E
:102B0000223001F01F042343494C54F8204044F87C
:102B1000223010BD0246464850F82200103050F8CE
:102B20002100704771B56C46207800F007052068D9
:102B3000C0F3C446002231462846FFF7D0FF00BF4D
:102B40003B4850F82500006800F080000028F7D0CE
:102B500000212846FFF7DEFF78BD70B5134633B17C
:102B6000012B1CD0022B25D0032B48D13CE0314C4B
:102B7000225602F01F050124AC402F4D560945F89E
:102B8000264000BF2A4A52F8202052F8212022F085
:102B90004002274C54F8204044F8212030E0244AD9
:102BA00052F82020126A22F00402214C54F82040EE
:102BB000226225E01E4A52F8202052F8212042F0DD
:102BC00040021B4C54F8204044F82120194C225656
:102BD00002F01F050124AC405509AD0005F1E025C8
:102BE000C5F8004100BF0BE0114A52F82020126ADC
:102BF00042F004020E4C54F82040226200E000BF74
:102C000000BF70BD11B10D4A42F82010704710B5D9
:102C10000A48006810B109490868804710BD10B51E
:102C20000648406810B105494868804710BD00005B
:102C3000645A0000845A000080E100E06C810020AA
:102C400010B504464FF0E020006940F004004FF05A
:102C5000E0210861002000F091F84549086008462D
:102C600000684449B0FBF1F041490860084600683B
:102C70004FF47A714843404908603D48006860431A
:102C80004FF0E021486110BD012808D14FF0E0214C
:102C9000096941F002014FF0E022116107E04FF0B5
:102CA000E021096921F002014FF0E0221161704733
:102CB000012808D14FF0E021096941F001014FF0EE
:102CC000E022116107E04FF0E021096921F00101E4
:102CD0004FF0E0221161704710B54FF47A70FFF7A2
:102CE000AFFF0120FFF7E4FF0020FFF7CDFF10BD8D
:102CF00001461F4A12684A434FF0E0235A610022FE
:102D00009A611A46126942F001021A6100BF4FF03F
:102D1000E022106900F001021AB100F48032002AAA
:102D2000F5D0704710B50146134B1B684FF0E024F7
:102D3000636123461B6943F00103236100220FE016
:102D400000234FF0E024A36100BF4FF0E023186997
:102D500000F001031BB100F48033002BF5D0521CAE
:102D60008A42EDD310BD4FF0E0208069704700002B
:102D70007481002040420F007881002070B5054624
:102D80000024FDF731FC5148406C012101EB10702B
:102D90004F49096800FB01F435B1012D0CD0032D1A
:102DA00012D0042D19D117E04848406C012101EBE5
:102DB0001070B4FBF0F412E04448406CC0F30360C0
:102DC000401CB4FBF0F40AE04048406CC0F3034000
:102DD000401CB4FBF0F402E001E0002400BF00BF9F
:102DE000204670BD3B49097841F0FF01394A117016
:102DF0003949096841F00401374A116028B1114688
:102E0000096841F00201116005E03349096821F0C9
:102E10000201314A116030BF7047014608687047AF
:102E20002A49086EC96D48402849896D4840704755
:102E300003B5684602680A600CBD2748EC3000689C
:102E400040F080702449EC3108602448006840F06C
:102E5000010022490860704730B501461F4C626886
:102E60001B4C24681E4DB4FBF5F404FB01F3D01891
:102E7000904205D900BF194C64688442FBD309E035
:102E800000BF164C64688442FBD800BF134C6468D2
:102E90008442FBD330BD10B504464FF47A7104FB75
:102EA00001F0FFF7D9FF10BD00B5FFF7C6FF00BD69
:102EB00010B504462046FFF7EEFF10BD10B50446DE
:102EC0002046FFF7C9FF10BD704700000080044096
:102ED0000000002000E0074010ED00E0001000E0DE
:102EE00040420F0030B502460B464FF6FF700021FE
:102EF00012E0555C684000240AE000F0010525B1AD
:102F000040104AF20105684000E04010651CACB278
:102F1000082CF2DB4D1CA9B29942EAD330BD6D49B1
:102F2000C96B41F480216B4AD1630178102906D125
:102F30006949896821F08071674A916005E06649B6
:102F4000896841F08071644A91606349896821F021
:102F50004051614A916011468968427B4FF040536D
:102F600003EA027211435C4A91601146896821F0BC
:102F70004041916011468968027B9B0003EA82729E
:102F80001143554A9160817B29B11146896841F00E
:102F90008061916005E05049896821F080614E4A66
:102FA00091604D4A816851601146896841F0007115
:102FB0009160416811601146896821F0007191604B
:102FC000704710B50446454901EB0410FFF7A7FF11
:102FD00010BD0020404A926802F0807212B13E4A51
:102FE00010680CE03C4A9268C2F30171022901D0DA
:102FF000032902D1384A508801E0374A10887047C7
:103000002DE9F04107460D463E46334989684FEAAF
:1030100091783149896821F040412F4A9160B8F197
:10302000000F09D0B8F1010F0DD0B8F1020F11D087
:10303000B8F1030F1AD114E02749896841F04041E3
:10304000254A916013E02449896841F00041224AF1
:1030500091600CE02049896841F080411E4A9160EE
:1030600005E01D4989681C4A916000E000BF00BF6F
:1030700003E002CE184A11602D1F042DF9D2344608
:10308000012D0DD0022D07D0032D0DD12188124A1C
:103090001180A178117008E021880F4A118004E0A6
:1030A00021780D4A117000E000BF00BFFFF791FFCB
:1030B0000949896821F04041074A916011468968B1
:1030C0004FF0404202EA88721143034A9160BDE822
:1030D000F081000000800440002003407C8100203B
:1030E00010B504465F48C06B40F400005D49C863FA
:1030F0000120FFF743FE5C490860084600685B4911
:10310000B0FBF1F0584908606068096848435849C5
:10311000227801EB021108605548217800EB01107C
:10312000806840F001015248227800EB0210816073
:103130005048006820F002004E49086010BD7CB580
:1031400005460C468DF8005001946846FFF7C8FF0D
:103150007CBD30B50B464349C96B41F40001414C7D
:10316000E1636AB1444C215601F01F050124AC40D3
:103170004D09AD0005F1E025C5F8004100BF00BFD5
:1031800052B13B4901EB0011896841F00204384912
:1031900001EB00118C6009E0354901EB00118968F1
:1031A00021F00204324901EB00118C604AB9304928
:1031B00001EB0011C96841F001042D4901EB001138
:1031C000CC6030BD2A4901EB0011896821F0010271
:1031D000274901EB00118A60254901EB001189683C
:1031E00041F00102224901EB00118A60704701465B
:1031F0001F4800EB0110406870471A4AD26B42F436
:103200000002184BDA6311B11C4A42F820107047D3
:1032100010B50446164800EB0410C06840F00101E8
:10322000134800EB0410C160144850F8240018B192
:10323000124951F82400804710BD10B50020FFF757
:10324000E7FF10BD10B50120FFF7E2FF10BD10B57C
:103250000220FFF7DDFF10BD10B50320FFF7D8FFF8
:1032600010BD0000008004402C82002040420F006E
:103270000071034000700340865A000090820120D4
:1032800093082BD090ED000A81ED000A90ED020A20
:1032900081ED020A90ED040A81ED040A90ED060A20
:1032A00081ED060A90ED010AD0ED030AD0ED051A72
:1032B00090ED071AB1EE400A81ED010AF1EE600AC5
:1032C000F1EE611AC1ED030AB1EE410AC1ED051A32
:1032D00081ED070A203020315B1ED3D102F00302BA
:1032E000B2F1004F2FD2002AD8BF704708380839F2
:1032F00012F0010F0BD090ED020A81ED020A90ED61
:10330000030A0830B1EE400A81ED030A0831520881
:1033100008BF704790ED020A81ED020A90ED030AA2
:10332000B1EE400A81ED030A90ED040A81ED040A32
:1033300090ED050A1030B1EE400A81ED050A10311A
:10334000521EE7D1704790ED000A81ED000A90ED22
:10335000010A0830B1EE400A81ED010A0831521E1F
:10336000F1D170475FEA930C56D000BFD1ED000A4F
:10337000D0ED002A90ED011AD0ED023A22EEA00A1B
:1033800021EE202AD1ED010AD1ED021A91ED034A76
:1033900001EE600A90ED033A02EEA02A23EEA11A94
:1033A00063EE840AD0ED042AD1ED044A82ED000ACE
:1033B00003EE441AD0ED053A43EE210A82ED012ACC
:1033C00091ED053A22EEA40A63EEA41A82ED021AE8
:1033D000C2ED030A90ED062A03EEC30AD1ED060AF8
:1033E00042EE831A90ED073A22EE201AD1ED072A19
:1033F00063EE200A82ED040A03EE621AC2ED051A9A
:1034000042EE220A2030203182ED061AC2ED070A70
:103410002032BCF1010CA9D113F0030308BF70479F
:1034200090ED001AD1ED000AD0ED011A91ED010ADC
:1034300021EE202A0830083101EEC02A21EE000AD0
:1034400001EEA00A82ED002A82ED010A08325B1E1D
:10345000E6D1704710B491ED000AD1ED010AD0F821
:1034600014C030EE001A70EEA00AB6EE000A008812
:103470000CF1080471EE201A71EE600A431E01EB94
:10348000C30361EE801A60EE800A801EC2ED001A4E
:10349000C2ED010AD3ED000AD1ED022A93ED011A23
:1034A00091ED033A70EEE23A9CED022ADCED031A4C
:1034B00031EE034A62EE234A72EEA00A61EEA33AAD
:1034C00061EE841A22EE042A70EEA40A01F11001C2
:1034D000A3F1080304F1080470EEA10A60EE800A6B
:1034E000C2ED020A73EE410A70EEA30A70EEC20A40
:1034F00060EE800AC2ED030A02F1100204BF10BCA4
:10350000704703F1040C0B1D14F104015CED013A4A
:1035100053ED012ADCED000A93ED001A73EEE21A76
:1035200072EEA32A11ED015AD1ED004A30EE812A44
:1035300045EE212A24EEA13A71EE600A25EE024AF8
:10354000401E01F1080170EE830A44EE822A03F165
:103550000803ACF1080C70EEC40A62EE801A60EE4B
:10356000800AC2ED001AC2ED010A02F10802CDD1B3
:1035700010BC7047D1ED000A91ED011AD0F814C0CB
:10358000008870EE811A70EEC10AB6EE000A431E82
:1035900061EE801A60EE800A0CF10800C2ED001A9C
:1035A000C2ED010A01EBC30C01F1080102F10802AE
:1035B00008BF7047DCED010A9CED003A91ED002A4E
:1035C00091ED011A90ED004A72EE431AD0ED013AE6
:1035D00071EE202A32EE032A64EE214A63EEA11A2C
:1035E00071EE600A23EEA25A32EE642A64EE222AB9
:1035F00070EEA10A083032EE452A083170EEE20A78
:10360000ACF1080C22EE002A60EE800A82ED002A5E
:10361000C2ED010A08325B1ECCD170472DE9F041A2
:103620000446008A1D004FEA500016460F462080CF
:103630000AD02046FFF79EFF2A4631462046BDE8C5
:10364000F041012300F0C7BC01232A46204600F0C8
:10365000C2FC324639462046BDE8F041FAE6000099
:103660004A08002302800182B2F5807F31D008DC55
:10367000102A4FD0202A45D0402A3BD0802A31D072
:1036800008E0B2F5007F1BD0B2F5806F0FD0B2F525
:10369000006F03D04FF0FF33184670474FF46E624F
:1036A0008281214A8260214A2149426039E04FF4F7
:1036B000E16282811F4A82601F4A2049426030E0F5
:1036C0004FF4E07282811E4A82601E4A1E494260A7
:1036D00027E04FF4DC7282811C4A82601C4A1D493B
:1036E00042601EE0D02282811B4A82601B4A1C4934
:1036F000426016E0382282811A4A82601A4A1B49C7
:1037000042600EE030228281194A8260194A1A49C9
:10371000426006E014228281184A8260184A1949E0
:1037200042604161B8E70000A4F100000C9A00007B
:10373000E44E010094E300000C7A0000E42E010046
:1037400014E000000C6A0000E41E0100A4DC00008C
:103750000C620000E416010004DB00000C5E0000B7
:10376000E412010094DA00000C5C0000E410010097
:1037700034DA00000C5B0000E40F01000CDA0000FA
:103780008C5A0000640F010070B44FF0000CB0ECD4
:10379000010A4E1E6446B50831D000BFD0ED000AC4
:1037A00090ED011A0830B4EEE00AF1EE10FA3CBFD9
:1037B000B0EE600A0CF10104F0EC010AB4EEC10AAB
:1037C000F1EE10FA3CBFB0EE410A0CF10204B0EC8D
:1037D000011AB4EEE00AF1EE10FA3CBFB0EE600A56
:1037E0000CF10304B4EEC10AF1EE10FA3CBFB0EEE6
:1037F000410A0CF104046D1E0CF1040CCED106F04C
:10380000030CBCF1004F19D2BCF1000FC4BF00255E
:1038100066460EDDF0EC010AB4EEE00AF1EE10FAB5
:1038200004D2ACEB0504B0EE600A0C1B6D1C761ED6
:10383000F0D182ED000A1C6070BC7047F0EC010A08
:10384000B4EEE00AF1EE10FA3CBFB0EE600AA1EB74
:103850000C04BCF1010CF1D1EBE7000030B49FED9A
:103860002A0A8B0813D000BFD0ED001AD0ED010A50
:1038700090ED021A30EE210A90ED032A10305B1E03
:1038800030EE200A30EE010A30EE020AECD101F0EF
:103890000303B3F1004F2FD25C1E002C1ADDA0F100
:1038A000040C13F0010F05D1DCED010A0CF1040C3E
:1038B00030EE800ADCED010A64100BD030EE200AF5
:1038C0009CED021ADCED030A641E30EE010A0CF1D5
:1038D000080CF3D15B1E05D400EB8300D0ED000A89
:1038E00030EE800A00EE901AF8EE600A80EE201AA0
:1038F00082ED001A30BC7047F0EC010A5B1E30EE1E
:10390000800AF9D1EEE7000000000000DFED401A68
:103910000129F0EE610AB0EE600A6CD08B081AD073
:1039200090ED001A01EE010A30EE812AD0ED010A75
:1039300032EE201A00EEA00AD0ED020A31EE202A63
:1039400090ED031A00EEA00A103072EE010A5B1E21
:1039500001EE010AE4D101F00303B3F1004F4DD2AF
:10396000002B1CDD001F13F0010F06D090ED011A93
:10397000001D01EE010A71EE200A5B080FD000BFA6
:1039800090ED011A01EE010A71EE200A90ED021A83
:1039900008305B1E71EE200A01EE010AF0D101EE43
:1039A000101AB7EE002AB8EE411A71EE422A80EEE4
:1039B000221A00EE101AF8EE402A80EEA20A00EE5B
:1039C000901AF8EE600A30EEC22A00EE901AF8EE75
:1039D000602AC2EE820A20EE000A20EE800A31EE52
:1039E000400AB5EEC00AF1EE10FAC2BFF1EEC00A0D
:1039F000C2ED000A7047C2ED001A7047B0EC011A20
:103A00005B1E01EE010A70EE810AF7D1C7E70000E4
:103A1000000000002DE9F04106462DED028B8C469A
:103A20000088736801EB80044508274601EB850098
:103A300004EB85025FEA95087DD000BFD1ED003A26
:103A4000D4ED001A91ED012A94ED013A73EEA16ACA
:103A500091ED024A91ED031AD4ED022AD4ED035AF6
:103A600090ED008A90ED017A90ED020A90ED036AE4
:103A700092ED005AD2ED014AD2ED027AD2ED030A5C
:103A8000C1ED006A72EE036A73EEE13A74EEC71A92
:103A9000C1ED016A74EE226A74EE622A37EEC04A02
:103AA000C1ED026A71EE256AC1ED036A72EE436AE6
:103AB00031EE652A38EE051A35EE483A80ED001AE7
:103AC00037EE241A80ED011A30EE271A80ED021A23
:103AD00036EE201A80ED031A30EEC61A93ED000A76
:103AE000D3ED010A63EE804A26EEA05A66EE805AB4
:103AF00063EEA03A74EE854A75EEE33AC4ED004AEF
:103B000063EE204AC4ED013A61EE803A61EEA00A0C
:103B100023EE000A74EEE31A30EE800AC2ED001ABA
:103B200082ED010A93ED020AD3ED030A62EE803AB8
:103B300022EE203A00E024E062EEA01A22EE002AF3
:103B400073EE832A1030103172EE611AC4ED022A2E
:103B500024EE202AC4ED031A61EE001A61EE200A59
:103B600024EE000A103332EE611A103430EE800A6F
:103B700082ED021A82ED030A1032B8F101087FF4D7
:103B80005DAF294602236046726800F0CBFA726886
:103B90002946BDEC028B3846BDE8F041022300F017
:103BA000C1BA2DE9F04F07462DED048B85B0008892
:103BB00003914FEA500801EB880202EB880000EB0A
:103BC00088060096CDE901024FEA580AD7F804901A
:103BD000CDF810A0D1ED000A90ED000AD2ED011A47
:103BE000D6ED013A70EE802A30EEC01AD1ED010A0E
:103BF00090ED010A341F151F30EE803A30EEC02AD6
:103C000031EE810AD2ED000A73EE615A31EE611A8B
:103C100030EE634A72EE604A96ED000A70EE821A48
:103C200075EEE35A34EE805A72EEE04A70EEA20A64
:103C300071EEC01A31EE231A74EEC04A30EE800ADB
:103C4000031F04EB880C81ED000A92ED010AD6ED0A
:103C5000010A09F1080830EE030A09F1100B09F115
:103C6000180930EE200A81ED010A82ED004A82ED4A
:103C7000015AC0ED004AC0ED015A86ED001AC6EDAA
:103C8000011ADDF810A00830083108320836AAF110
:103C9000020A5FEA5A0A00F0058100BF91ED001A9E
:103CA00090ED000AD1ED011A92ED014A71EE000A81
:103CB00031EE401A90ED010A96ED015A96ED003A68
:103CC00071EE803A71EEC02A34EE010A31EE441AE8
:103CD00070EE454A92ED000A31EE051A72EEC01AF6
:103CE00070EE222A31EE832A70EEC01A30EE200ADE
:103CF00072EEC32A31EEC36A30EE030A73EEC41AC1
:103D000081ED000A92ED010AD6ED010A71EEC51AA5
:103D100030EE230A30EE200A81ED010A95ED004ACB
:103D200094ED003A55ED010A14ED010A74EE033AE0
:103D300034EE435A34EE433A13ED014A70EE805AA2
:103D40001CED019A33EE443A70EEC08AD3ED000ABE
:103D50009CED000A33EE098A35EEC43A70EEC06A73
:103D600039EE444A33EE497A33EEE03A76EEA87AF9
:103D700034EE454A73EE406A30EEC03A70EEA30A64
:103D800033EE683A30EE800A85ED000A13ED010A41
:103D90005CED010A30EE250A30EE200A05ED010A3D
:103DA00098ED000AD8ED010A24EE805A62EE203A1E
:103DB00022EE002A64EEA04A75EE233A32EE642A1F
:103DC000C2ED003A82ED012A28EE202A67EE803A01
:103DD00067EEA00A28EE000A083132EE632A0832A4
:103DE00030EE800A83ED002A083D03ED010ADBED89
:103DF000000A9BED010A083B66EE203A21EE802A7C
:103E000061EEA04A66EE001A08F1080833EE822A35
:103E10000BF1100B74EEE11A80ED002A27EE002A58
:103E2000C0ED011AF1EE661A26EE800A61EEA01AC4
:103E300067EE200A083071EEC21A30EE600AC4ED57
:103E4000001A04ED010A99ED000AD9ED010A083CB7
:103E500021EE002A62EEA01A62EE802A21EE201ADC
:103E600009F1180972EE211A32EEC11AC6ED001AD4
:103E700063EE001A86ED011A24EE201A63EE200A82
:103E800024EE000A083631EE611ABAF1010A30EE6A
:103E9000800A8CED001A0CED010AACF1080C7FF4DD
:103EA000FDAE00BFD1ED000A90ED000AD1ED011A80
:103EB000D2ED015A70EE802A70EEC00A90ED010A30
:103EC00096ED015A042331EE801A71EEC04A35EEA8
:103ED000A00AD2ED001A71EE653A70EEE50A30EEF6
:103EE000452A34EEE13A96ED000A73EEC53A30EE1B
:103EF000855A33EE004A32EEE13A71EEA40A71EED1
:103F0000A21A33EE403A70EEC00A31EE800A81ED1B
:103F1000000A92ED010A30EE010A96ED011A30EE28
:103F2000010A81ED010A98ED001A98ED010A62EE8E
:103F3000011A64EE002A24EE011A22EE000A71EE44
:103F4000A21A31EE400AC2ED001A82ED010A9BED81
:103F5000000A9BED011A63EE001A23EE812A23EE7C
:103F6000800A23EE011A71EE821A30EE410AC0ED8A
:103F7000001A80ED010A99ED000A99ED011A25EE6B
:103F8000002A60EE811A20EE800A65EE010A32EE08
:103F9000211A30EE600A86ED001A86ED010ADDE98D
:103FA00003017A6800F0BEF87A6804230499029845
:103FB00000F0B8F87A6804230499019800F0B2F888
:103FC0007A680499009805B00423BDEC048BBDE821
:103FD000F04F00F0A7B82DE9F04104889846174645
:103FE0000D460646012A21D1281DFCB1A0F1080189
:103FF00014F0010F06D091ED020AB1EE400A81EDF6
:10400000020A08315FEA540C10D000BF91ED020A99
:10401000B1EE400A81ED020A91ED040AB1EE400AC8
:1040200081ED040A1031BCF1010CEFD1B4F5807FB1
:104030001BD008DC102C13D0202C16D0402C19D00B
:10404000802C0DD01CE0B4F5007F13D0B4F5806F48
:1040500006D0B4F5006F08D0B4F5805F0AD00FE049
:1040600029463046FFF7D6FC0AE029463046FFF7DE
:1040700098FD05E0214601232846726800F052F8B9
:10408000B8F1000F04D0B1892846B268FCF71EFAD7
:10409000012F18BFBDE8F08100EE104AB7EE001AFC
:1040A000002CF8EE400A81EE200A08BFBDE8F0813E
:1040B000A5F1080014F0010F0ED0D0ED020A60EE59
:1040C000800AC0ED020AD0ED030AF1EE600A60EE4C
:1040D000800AC0ED030A0830610808BFBDE8F0811E
:1040E000D0ED020A60EE800AC0ED020AD0ED030AAC
:1040F000F1EE600A60EE800AC0ED030AD0ED040A1A
:1041000060EE800AC0ED040AD0ED050AF1EE600A07
:1041100060EE800AC0ED050A1030491EE0D1BDE80E
:10412000F08100002DE9FF4F2DED108B82B09FED47
:10413000FEFA0B461C46DB084FF0000C0CEB0305A7
:1041400005EB030808EB030909EB030606EB030A7A
:1041500000EBCC0700EBC60697ED001AD6ED000A7F
:104160000AEB030B00EBC50500EBCA0A31EE200A8F
:1041700071EE601A95ED002ADAED000A0BEB030EE2
:1041800000EBC80832EE201A00EBCB0B32EE602AAF
:10419000D8ED002ADBED000A00EBC90900EBCE0EDA
:1041A00099ED003A9EED004A72EEA03A72EEE02AD6
:1041B00073EE040A33EE443A70EE636A70EE233A0B
:1041C00031EE600A71EE200A33EEA01A73EEE00AB7
:1041D00087ED001AC6ED000A97ED011AD6ED010A27
:1041E000D5ED013A98ED014A31EE206A71EE600A90
:1041F0009AED011A99ED015A73EE814A73EEC13AB4
:104200009BED011A34EE017A34EE411A9EED014A1B
:1042100075EE045A35EE444A36EE475A36EE076AD2
:1042200034EEE57A74EEA54A76EE245A76EE644AC8
:10423000C7ED015AC6ED014A76EE874AC8ED004A3D
:1042400076EEC74ACBED004A75EE404A35EE000ADD
:10425000C8ED014A8BED010A32EE430A32EE032A21
:1042600020EE0F0A62EE0F4A33EEC42AA4448C45B6
:1042700022EE0F3A33EE842A30EEC34A62EE0F3A52
:1042800030EE833A31EEC02A31EE800A71EE630AD5
:1042900031EE231A72EEE41A72EEA42A70EE013A9D
:1042A00030EE410AC5ED003A8EED000A32EE200AEA
:1042B0008AED000A32EE600A89ED000A33EE620AE6
:1042C00085ED010A33EE220A8EED010A34EE610A11
:1042D0008AED010A34EE210A89ED010AFFF42EAFBE
:1042E000082B3FBF02B0BDEC108B04B0BDE8F08FCF
:1042F0004FF0000CCDF804C04FF0010CCDF800C019
:10430000DDF804C0159DAC444FEA8C0505EB0C07A5
:10431000CDF804C007EB0C094FEA4C0808EB0C067B
:1043200009EB0C0A02EBCC0C02EBC80802EBC60648
:1043300002EBC50502EBC70702EBC90902EBCA0A8B
:104340009CED00DA9CED018AD8ED00CA96ED00CA1A
:10435000D5ED00BA97ED00BAD9ED00AADAED008AE2
:10436000D8ED017A96ED01AA95ED017AD7ED016AB3
:1043700099ED016ADAED019ADDF800C00CEB030754
:10438000FD1805EB030A0AEB030808EB030606EB2E
:10439000030B00EBCC0900EBC808D9ED000A98ED3F
:1043A000000A00EBC70700EBC606D7ED001A96ED32
:1043B000001A70EE803A0BEB030E70EEC00A31EE7D
:1043C000810A00EBC50500EBCB0B31EEC11AD5ED30
:1043D000001A9BED002A00EBCA0A00EBCE0E31EE6C
:1043E000824A71EEC21A9AED002ADEED002A32EE00
:1043F000223A32EE622A73EEC42A73EE843A30EE29
:10440000435A30EE030A33EE803A73EEC0DA89ED98
:10441000003A99ED010A98ED013AD7ED013A95ED90
:10442000014A70EE03EA30EE433A96ED010A9AED46
:1044300001EADEED014A33EE809A73EEC03A9BED5D
:10444000010A74EE005A34EE404A3EEE240A7EEE33
:10445000644A3EEEE5EA7EEEA55A79EE40EA39EE90
:10446000009A32EEAE0A72EEEE2A75EE89EA35EE69
:10447000C99A7EEE455AC9ED01EA3EEE055A2BEE89
:10448000ADEA67EE09EA2BEE899A67EE2DDA3EEE89
:104490002EEA39EE6D9A88ED00EA67EEA5DA88ED2E
:1044A000019A2CEE809A6CEEA55A27EE800A39EE1E
:1044B0002D9A35EEC00A85ED009A66EE055A85ED17
:1044C000010A2AEEA20A2AEE855A66EE222A30EE68
:1044D000250A8BED000A35EE620A73EEA42A8BEDF5
:1044E000010A31EE420A31EE021A33EEE42A62EE9C
:1044F0008F3A20EE0F0A21EE0F1A22EE0F2A70EEED
:10450000C02A30EE800A71EEC10A71EE811A33EED4
:10451000421A33EE022A34EE633A34EE234A70EE46
:10452000043A30EE444A01E0F304353F72EE834A28
:1045300072EEC32A32EE613A32EE210A71EE601A4F
:1045400071EE200A2DEE232A28EE031A2DEE033AEF
:1045500068EE233AA44432EE011A28EE842A8C45F0
:1045600087ED001A33EE631A29EE843A87ED011ABB
:1045700029EE801A28EE800A32EE011A30EE430A44
:1045800026EEA42A8EED001A8EED010A2BEE240AE7
:1045900026EEA11A6BEE211A30EE010A2CEE221A39
:1045A00086ED000A31EEC20A6AEE221A86ED010A91
:1045B0002AEE200A6CEE200A31EE000A8AED000A8B
:1045C00030EEE10A8AED010AFFF4D8AEDDF800C052
:1045D0000CF1010CCDF800C063453FF691AEDDF85B
:1045E00054C04FF6FF7404EACC0CCDF854C0072B2E
:1045F0003FF6A0AD02B0BDEC108B04B0BDE8F08F6B
:1046000070477047704700001FB584B000200A9CB7
:1046100006AB04AA02A90094AFF3008018B1DDE94B
:10462000020108B010BD0348204000F030F800201F
:104630000146F6E70000207C754600F02FF8AE46F4
:1046400005006946534620F00700854618B020B59E
:10465000FCF78CF8BDE820404FF000064FF0000753
:104660004FF000084FF0000B21F00701AC46ACE81A
:10467000C009ACE8C009ACE8C009ACE8C0098D4687
:1046800070470446AFF300802046FBF763FF10B588
:1046900000F00EF8BDE8104000F004B80048704784
:1046A000A0820120002801D000F058B87047000017
:1046B00010B5022803D0410103D50DA112E000205E
:1046C00010BD010101D50FA10CE0C10001D511A160
:1046D00008E0810001D512A104E0400001D513A13A
:1046E00000E0002115A000F03FF8012010BD0000FF
:1046F000496E76616C6964204F7065726174696F90
:104700006E000000446976696465204279205A652C
:10471000726F00004F766572666C6F770000000064
:10472000556E646572666C6F77000000496E65783F
:1047300061637420526573756C7400005349474679
:1047400050453A2041726974686D657469632065EB
:104750007863657074696F6E3A2000000149182013
:10476000ABBEFEE72600020070B505460C460A20E7
:1047700000E06D1C00F011F835B128780028F8D160
:1047800002E0641C00F009F814B120780028F8D188
:10479000BDE870400A20AFF3008008B569468DF887
:1047A00000000320ABBE08BD7047000021F00042AE
:1047B000A2F16052B2F5801F01F0004328BFD2F190
:1047C0007E6C51D9F1EE10CA1CF4400F14D15FEA8F
:1047D000C00C43EAC20202EB507008BF70475FEAA8
:1047E0004C0C40F10000DFF880C240F0EB8528BFA0
:1047F00020F0010000F0E6BDC30001F0004343EAF1
:10480000C20202EB507008BF70471B4248BF4FEA1C
:104810004C0C1CF4000F08BF401CDFF84CC200F029
:10482000D1BDC30001F0004343EAC20202EB507263
:1048300004BF104670471B4248BF4FEA4C0C1CF4A3
:10484000000FDFF824C218BF104640F0BB8508BF38
:10485000521C12F4000F08BF104600F0B38521F07F
:10486000004201F0004330E050EA410C04BF08462A
:1048700070475FEA125CBCF1FE0F1ED1F1EE10CA68
:104880001CF4400FCDD15FEAC00C9BD05FEA001C46
:104890004FEAC20C4CEB507C04BFC2002CEAD27C25
:1048A0001CF4000F04BF4CEA0300DFF8BCC100F0A9
:1048B000898521F00042A2F16052B2F5801F4FEAD3
:1048C000410C2ADB1CF5001F16D2F1EE10CA1CF4B5
:1048D000806F06D02CF0005C4CF0805CA1F1406150
:1048E0002AE04FF07F40DFF884C143EA500000F037
:1048F00069BD084600F017BF70B500F0E7FB00BFC8
:10490000000000B988000004FFF7F3BF21F07042F7
:1049100043EA507040EAC2007047F1EE10CA2CF032
:10492000805C4CF0005C1CF4006F25D04B00B3F5AC
:10493000001F51D301F140611CF4400F40F07E8014
:104940000CF0405CC3004CF0880C11D05CF0404C83
:1049500010F0805F0CD0034610F1005041F10001CF
:10496000020108BF20F00050834218BF2CF0004C19
:1049700000F0604000F0D3BF1CF4400F1AD01B427F
:1049800048BF4FEA4C0C1CF4000F13D112F14062E7
:1049900048BF22F07F424FEAC00CBCF1010F43EA4E
:1049A000C20242EB50704FF0880228BF42F08042B2
:1049B00000F0BEBE12F1406248BF22F07F425FEAC3
:1049C000C00C43EAC20242EA50704FF0880218BF9E
:1049D00042F0404200F0ACBE01F0004321F0004143
:1049E000094214D0B1FA81FCACF10B0CCCF12002DD
:1049F00001FA0CF120FA02F241EA02014FEA0C52EC
:104A000000FA0CF0A1EB020181EA03010FE0B0FA19
:104A100080F200FA02F002F115024FEAD0214FEACB
:104A20000252A1EB02014FEA405081EA0301F1EE8C
:104A300010CA2CF0805C4CF0005C7BE762460CF006
:104A4000405CC3004CF0880C92D05CF0404C0942B2
:104A500048BF520012F4000F8AD110F1005041F10A
:104A600000012CF0004C83D1880000408800001029
:104A70002DE9C04130B4DFF860C33CEA111418BF1F
:104A80003CEA131400F04A8181EA03051CEA111480
:104A900044EAD57418BF1CEA131500F01C81A4EB7E
:104AA00005044FF0004545EAC12145EAC32341EA28
:104AB000505143EA525304F17F74994204F5003493
:104AC0004FEAC0204FEAC22208BF904200F0CF80D8
:104AD0004FEA13650FF20026765D4FEA134506FB99
:104AE00005F7C7F1807706FB07F74FEAD737A7FB33
:104AF00003687642C8F58038A7FB06CE38BFA8F118
:104B0000010807FB08E64FF0000EA6FB028CE6FB4F
:104B100003CEDCF1000CCEF1004E38BFAEF1010E39
:104B2000A6FB0C584FF000074FF00005E6FB0E8780
:104B3000A1FB08C6A0FB07CE16EB0E0645F100054B
:104B4000E1FB076515F1E04E7EBFA4F580345FEA16
:104B500046066D4116F18007F1EE10CA45F10005D9
:104B60004FEA172747EA05671CF4400F4FEA15255F
:104B700035D14FEA4666A6F15E46B6F1085F2ED9FA
:104B8000B4F1FE6F2BD8384624F0010C05EBC4714C
:104B9000BCF1FE6F01EB0C11DFF840C29CBFF0BC12
:104BA000BDE8004140F20E8424425FBF01F5801E43
:104BB0009EEAC47FF0BCBDE8004140F1038424427A
:104BC00077D4DFF81CC256EA080EA1F1C04118BF25
:104BD0004CF0804CF0BCBDE8004100F0F3BB4FEA64
:104BE000D22242EA43524FEAD323A7FB02864FEA7E
:104BF000D02040EA415007FB03661EEA0E0F4FEA41
:104C0000D12105FB026658BFA6EB0056B6EB005655
:104C10004FEA520E4EEAC37E18EB0E0E56EB530EC1
:104C200005D518EB02085E417F1C55F1000556EAD8
:104C3000080E24D01CF4400FA5D014F0010F18BFAB
:104C40004FEA4C0C1CF4000F08D036429BD4B8EB52
:104C500002089E417F1E75F1000594E7364292D509
:104C600018EB02085E417F1C55F100058BE74FF4FD
:104C700080154FF000074FF000064FF0000824F0B9
:104C8000010C384605EBC471BCF1FE6F01EB0C1151
:104C900002D8F0BCBDE800811CEA0C0F5CBF01F536
:104CA000801E9EEAC47F02D4F0BCBDE8008124428D
:104CB00087D556EA080C01F1C0411CBF06F0004C34
:104CC0004CF0804C4CF0005CF0BC4CF0140CBDE897
:104CD000004100F0BABA50EA410E0CEA13150BD0AD
:104CE00052EA430E13D000F072FA641B86EA4606BD
:104CF000240444EAD674D4E652EA430E00F0258038
:104D0000F0BC81EA030101F00041BDE80081F0BC84
:104D1000DFF8D0C0BDE8004100F054BBF0BCBDE8F6
:104D2000004170B500F0D2F9097EFC3E1400000489
:104D300000F007B881EA03014FF0000001F00041E4
:104D4000704781EA030100F07ABAF0BCBDE8004187
:104D50005FF828C000F036BBFFFDFBF9F7F5F4F271
:104D6000F0EEEDEBE9E8E6E4E3E1E0DEDDDBDAD806
:104D7000D7D5D4D3D1D0CFCDCCCBCAC8C7C6C5C464
:104D8000C2C1C0BFBEBDBCBBBAB9B8B7B6B5B4B37B
:104D9000B2B1B0AFAEADACABAAA9A8A8A7A6A5A466
:104DA000A3A3A2A1A09F9F9E9D9C9C9B9A9999982A
:104DB0009797969595949393929191908F8F8E8ECD
:104DC0008D8C8C8B8B8A898988888787868585845A
:104DD00084838382828181800000FF071400004069
:104DE00014000010140000084FEA1153A3F580636B
:104DF00080B5D3F11E03A8BFD3F1200C1BDB4FF00D
:104E0000004242EAC12252EA505232FA03FC62FAEC
:104E100003F787EA0C0757EAC0270AD052EA505234
:104E200032FA03FC6046BDE88040DFF890C000F035
:104E3000C9BA604680BD094218D450EA410C00D17D
:104E400080BD102B07DD4FF00000BDE88040DFF88B
:104E50006CC000F0B7BA03F5787CBCF1FF3F22D0FC
:104E6000BDE88040DFF858C000F0ACBABDE8804033
:104E700001F1804212F5801F09DA50EA41024FF039
:104E8000000018BFDFF834C040F09C827047DFF8A4
:104E900030C0012841EB010212F5001F88BF4CF41D
:104EA000803C00F08FBABDE8804070B500F00EF98C
:104EB000000000BFE800030480B5D1E7E80002402D
:104EC000E800020410F0004248BF4042B0FA80F30C
:104ED00010FA03F10AD0C3F11D0303F580634FEA12
:104EE000415002EB035202EBD12170474FF000001A
:104EF0007047B1FA81F201FA02F1C2F11D024FEAE4
:104F0000415003EB025303EBD1217047DFF8B4C1EA
:104F100070B51CEA111E1EBF1CEA13159EEA0C0F89
:104F200095EA0C0F00F0948081EA030421EA4C1109
:104F30004EEAD47E23EA4C13AE4441F4801143F48C
:104F40008013A1FB024CA0FB0365AEF17F7E3619F6
:104F500055EB0C05A1FB034C4CF10003A0FB021C1C
:104F600016EB0C06654153F10003094218BF46F0E9
:104F7000010613F4007F0BD14FEA03314FEA0530ED
:104F8000340341EA155140EA16506FF003020AE07B
:104F90004FEAC3214FEAC520F40241EA555140EAE5
:104FA00056506FF00202264602EB2E4201EB0255EC
:104FB00085EACE7127D0F1EE10CA05461CF4400CEC
:104FC00014D15FEA440C18BF24F0004450F10000F3
:104FD00041F1000120EAD47040F2FD7C624517D215
:104FE000BDE87040DFF8E0C000F0ECB95FEACE74D5
:104FF00054BF1CF4000F1CF4800F08BF10F1010017
:1050000041F10001E8E740F2FE7C624504D270BD48
:1050100008BF11F4801FE3D0A84214BF4FF08044B2
:105020004FF04044002E08BF0024BEF1806FD8BF6F
:1050300001F1C041A8BFA1F1C04144F0130CA8BFC9
:105040004CF0805CBDE8704040F3FF8000F0BAB9DE
:105050009EEA0C0F0CEA131518BF95EA0C0F19D035
:1050600091EA030F48BF4EF0010E50EA410418BF09
:1050700052EA430409D000F0AAF8641986EA460609
:105080004FEA044E4EEAD67E5BE74FEACE714FF010
:10509000000070BD00F01AF88900013E1300000402
:1050A00000F005B800F007B852EA430C06D081EAD8
:1050B000030100F0C4B850EA410CF8D15FF824C0F5
:1050C00000F080B90000FF07130000400EF1020E4F
:1050D0002EF0030E01285EF8086B41EB010414F575
:1050E000001418BFB4F5801F23D3364208D4012A18
:1050F00043EB030515F5001518BFB5F5801F18D350
:1051000001EB010C1CF5801F16D2364204D403EBD0
:10511000030C1CF5801F0FD2002C10D14FEAD17C5C
:10512000002D0CEB4C0C0CF1020C08BF4CEBD37CAB
:1051300007E04FF0090C04E04FF0080C01E04FEAE3
:10514000D37C0CEB4C0526FA05F606F00706B6F103
:10515000040C06D20EEB860CBDE870404CF0010C3E
:105160006047DFE80CF0222413025EF804CC1B2D0C
:1051700008D1002C88BFB4F5801F34BF4CF4804C9C
:105180004CF4004CBDE8704000F01CB9002C88BF06
:10519000B4F5001F24BF1946104670BD4FF0000043
:1051A0004FF00041A1F5002170BD194610460128BD
:1051B00051EB010418BFD4F5001484BF5EF804CC91
:1051C0002CF0806CBDE8704000F2DC80704780B548
:1051D0004FF003065C004FEA03334FEA3606640DD6
:1051E0004FEA133318BF43F480131CD153EA125E05
:1051F00004F1010402BF13460022203C1B4202BFFF
:10520000130B1205143CB3FA83FEAEF10B0ECEF174
:10521000200C03FA0EF322FA0CFC02FA0EF2A4EBB5
:105220000E0443EA0C030FB416F0010F0CBC03BCD0
:1052300018BF2546CED180BD80B50126F3E708080A
:10524000A0F500114FEA31017047F1EE103A13F06A
:10525000807F1EBF01F000410020704713F4006FF3
:1052600040F0AA80094248BF4CF4803C4FF4C06330
:105270004FEA115203F1010321EA025122F40062C4
:105280009A1A48BF6FF0FE0241F48011352A3CD8CB
:1052900030D0152A1ED3203A0CD90028C2F12003A1
:1052A00021FA02F001FA03F218BF42F001024FF0B6
:1052B000000130E0C2F1000302F1200201FA03F123
:1052C00020FA02F241EA020100FA03F208464FF026
:1052D000000120E0C2F1200310B400FA03F401FA47
:1052E00003F320FA02F021FA02F1224610BC43EA4D
:1052F000000010E050EA01324FF000004FF00001D2
:105300004FF0004218BF521C05E04FF001024FF071
:1053100000014FF000001CF4803F2CF4803C18BFCB
:1053200041F0004112421ED0F1EE103A13F4400F4A
:1053300020D1520003D30CD0401C41F10001F1EE0A
:10534000103A4CF0804C43F00803E1EE103A00F0C4
:1053500039B85FEAAC72EFD4F1D1401C41F10001E1
:1053600020F00100EBE71CF0804F08BF70472CF0E5
:10537000004CE4E7094254BF13F4000F13F4800F0C
:10538000DDD1D9E7F1EE103A13F0807F1EBF01F0B6
:1053900000410020704713F4006F08BF70472DE9EB
:1053A000F050FFF749FF04F5C064A4F10104314354
:1053B00001EB0451BDE8F0504CF0005C4CF0800C67
:1053C00000F0ADBA1CF0700F08BF0A460FB4F1EE42
:1053D000101A0CF0405030EA814318BF4CF0804C5A
:1053E0004FEA4C0310EA814F4FEAD36323EA1123BB
:1053F00018BF23F0100341EA030101F0E073E1EE6E
:10540000101A4CEA030C0CF00F030A2B1DBF082BDB
:105410000CF070034CEAC30C4FF4003304BF33EAC2
:105420000C034CF4400C1CF0005F14D11CF0805FA6
:105430000BD11CF0804F31D11CF0006F12D111F450
:10544000807F0FBC62D000F06ABA11F4806F0FBC8D
:105450002BD000F064BA11F4006F0FBC08BF704786
:1054600000F05DBA11F4007F0FBC40F058821CF0D0
:10547000400F1EBF4FF0004040F0010070471CF08D
:10548000100F14BF81EA030242400CF00F000A28FB
:1054900008BF4FF0FF324FF0000326E011F4805FA9
:1054A0000FBC08BF704700F03ABAF1EE103A2CF08A
:1054B000805C1CF0800F14BF01F0004200F000423D
:1054C00012420CBF12EA336F12EAF35F0DD31CF0E5
:1054D000100F1DBF30A003C81143314808BF10434F
:1054E00013F4805F40F01B8270471CF0100F02F035
:1054F00000421DBF0FF2940003C81143254808BFA6
:10550000104313F4805F40F00A8270471CF0400F94
:1055100040F028801CF4404F1BD01CF4004F1CBFEF
:10552000194610460CF4807218BF8CEA520C1CF01D
:10553000800F0CBF40F4800041F400218CEADC03B2
:1055400013F0100F1CBF2CF00F0C4CF0080C00F0E7
:105550008DB91CF0100F1ABF12A393E80300134873
:1055600000F084B91CF0800F14BF01F0004200F07D
:1055700000421CF0100F1BBF0AA393E803000B4866
:10558000114308BF104300F071B900BF00000000D4
:105590000000F07F0000807FFFFFFFFFFFFFEF7F35
:1055A000FFFF7F7F000000000000F87F0000C07F49
:1055B00043004FEAD30C4FEA3C0C43401FBF400767
:1055C0000CF1605113F0FE4F70471CF0006F14D1C6
:1055D00033F0004004BF1946704783EA830383EA2F
:1055E000430303F0070343EACC010CF0004303F14B
:1055F0005A5303F54013FFF77CBC0CF0004343EA19
:10560000507010B540EACC0000F00FF8000000BA6E
:10561000180000044FEA0001FFF711BE4FEAE00254
:105620004FEA407042F0E04170470EF1020E2EF05A
:10563000030E4FEA40025EF8084B12F1807218BF69
:10564000B2F5000F22D3244207D44FEA410313F1ED
:10565000807318BFB3F5000F18D34FEA400C1CF548
:10566000000F16D2244204D44FEA410C1CF5000F5F
:105670000FD2002A10D14FEAD07C002B0CEB4C0C3F
:105680000CF1020C08BF4CEBD17C07E04FF0090C89
:1056900004E04FF0080C01E04FEAD17C0CEB4C0326
:1056A00024FA03F404F00704B4F1040C06D20EEB60
:1056B000840CBDE810404CF0010C6047DFE80CF0B2
:1056C0001F2013025EF804CC1B2B08D1002A88BFD0
:1056D000B2F5000F34BF4CF4804C4CF4004CBDE8E4
:1056E0001040FFF76FBE002A88BFB2F1807F28BF4D
:1056F000084610BD4FF00040A0F5800010BD0846E0
:10570000420018BFD2F1807284BF5EF8042C22F0F0
:105710008062BDE8104000F28A8070474FF00000C0
:10572000E1EE100A7047FF2141EAD050C0057047F2
:10573000F1EE101A11F0807F1CBF00F0004070479E
:1057400011F4006F40F08E8000F0004343EAD05324
:1057500023F48073C3F1C10323F00041172941D81A
:10576000C3F1200310FA03F1C3F1200320F07F40BE
:1057700040F4000020FA03F003F0004340EA030085
:1057800019D00B46F1EE101A41F00801E1EE101AA3
:1057900011F4400F1CD1590009D318BF401C06D189
:1057A0007FEAE27398BF401C38BF20F0010042F04E
:1057B000804CFFF707BE12F0804F08BF7047F1EE34
:1057C000101A944641F00801E1EE101AFFF7FABDF5
:1057D00010F0004F14BF5FEAF1535FEA316338BF46
:1057E000401CE4E7182903EB912318BF6FF0004138
:1057F0000131F1EE101A41F00801E1EE101A11F436
:10580000400F18BF03F00040E2D168BF03F0004032
:1058100009D6400203F0004000F1010004BF12F07D
:10582000004F20F001004FF0804CFFF7CBBDF1EEB0
:10583000101A11F0807F1CBF00F00040704711F477
:10584000006F08BF704700F0004120F00040B0FA40
:1058500080F3A3F1080341F0C04100FA03F0A1EB8B
:10586000C351084442F0005C00F059B80CF00F033B
:10587000092B08BF082000F064800A2B32D0082BC7
:1058800018BF704708BF1CF0400F31D01CF4803F98
:1058900023D11CF0200F11D11CF0100F0BBF0246BA
:1058A0000A466FF000406FF0004118BF4FF0FF3024
:1058B00012F0004F1CBFC043C94370471CF0100FCB
:1058C0000CBF02460A4612F0004F4FF0FF304FF077
:1058D000FF311CBFC043C94370474FF000004FF079
:1058E000000170471CF0400F18BF4FF00040704798
:1058F0001CF0100F08D020F0704300F07F4242EA05
:10590000D3014FEA4370704700F0604021F07F42BE
:1059100042EA000201F07F4040EA727070472DE9D0
:1059200000502DE90050FEF76FFEBDE80050BDE8C5
:1059300000500CF00F0393F0090F18BF7047AFF33E
:1059400000801CF4801F24D01CF4E02F09D010F03C
:10595000080F02D1D0F1020070476FEACC31490044
:1059600070474FF0604111EA407028BF40F040504E
:10597000F1EE103A23F0704343EA0003E1EE103AEF
:10598000EFF3008222F0704242EA000282F30088C4
:1059900070471CEA004018BF0120704700F00F401C
:1059A00040F00F4080F00F40C0F00F4000F10F407A
:1059B0000090044000A0044000B0044000C0044037
:1059C00000D00440000200000004000000080000B5
:1059D00000100000002000003B3C3D3E3F00000066
:1059E00000A0064000B0064000C0064000D00640BF
:1059F00000A00E4000B00E403480044000040000BF
:105A00000000000034800440000800000000000096
:105A10003480044000100000000000003480044086
:105A20000020000000000000288004400004000066
:105A30000000000028800440000800000000000072
:105A40001F21232542440000010000000400000043
:105A500008000000100000002000000040000000CE
:105A60008000000000B0034000B00B403C800440C8
:105A70000000000800000000308004400000000822
:105A80000000000027493031323300000000803F21
:105A9000000000005E836C3F15EFC33EF304353F0A
:105AA000F304353F15EFC33E5E836C3F00000000FA
:105AB0000000803F15EFC3BE5E836C3FF30435BF2B
:105AC000F304353F5E836CBF15EFC33E000080BF1B
:105AD000000000005E836CBF15EFC3BEF30435BF4A
:105AE000F30435BF15EFC3BE5E836CBF00000080BA
:105AF000000080BF15EFC33E5E836CBFF304353FEB
:105B0000F30435BF5E836C3F15EFC3BE0000803FDA
:105B100000000000BE147B3FC2C5473E5E836C3F61
:105B200015EFC33E31DB543FDA390E3FF304353F06
:105B3000F304353FDA390E3F31DB543F15EFC33EF6
:105B40005E836C3FC2C5473EBE147B3F0000000031
:105B50000000803FC2C547BEBE147B3F15EFC3BEE9
:105B60005E836C3FDA390EBF31DB543FF30435BF3F
:105B7000F304353F31DB54BFDA390E3F5E836CBF2F
:105B800015EFC33EBE147BBFC2C5473E000080BFB9
:105B900000000000BE147BBFC2C547BE5E836CBF61
:105BA00015EFC3BE31DB54BFDA390EBFF30435BF86
:105BB000F30435BFDA390EBF31DB54BF15EFC3BE76
:105BC0005E836CBFC2C547BEBE147BBF00000080B1
:105BD000000080BFC2C5473EBE147BBF15EFC33E69
:105BE0005E836CBFDA390E3F31DB54BFF304353FBF
:105BF000F30435BF31DB543FDA390EBF5E836C3FAF
:105C000015EFC3BEBE147B3FC2C547BE0000803F38
:105C1000000000006DC47E3F36BDC83DBE147B3F12
:105C2000C2C5473E0BFA743F31A0943E5E836C3F81
:105C300015EFC33E98C5613FEA5AF13E31DB543F50
:105C4000DA390E3F03E4453F9967223FF304353FBD
:105C5000F304353F9967223F03E4453FDA390E3FAD
:105C600031DB543FEA5AF13E98C5613F15EFC33E20
:105C70005E836C3F31A0943E0BFA743FC2C5473E31
:105C8000BE147B3F36BDC83D6DC47E3F00000000A2
:105C90000000803F36BDC8BD6DC47E3FC2C547BE53
:105CA000BE147B3F31A094BE0BFA743F15EFC3BE08
:105CB0005E836C3FEA5AF1BE98C5613FDA390EBF88
:105CC00031DB543F996722BF03E4453FF30435BFFE
:105CD000F304353F03E445BF9967223F31DB54BFEE
:105CE000DA390E3F98C561BFEA5AF13E5E836CBF58
:105CF00015EFC33E0BFA74BF31A0943EBE147BBFB8
:105D0000C2C5473E6DC47EBF36BDC83D000080BFE2
:105D1000000000006DC47EBF36BDC8BDBE147BBF91
:105D2000C2C547BE0BFA74BF31A094BE5E836CBF80
